{
  "_format": "hh-sol-artifact-1",
  "contractName": "MessagePortal",
  "sourceName": "contracts/MessagePortal.sol",
  "abi": [
    {
      "inputs": [],
      "stateMutability": "payable",
      "type": "constructor"
    },
    {
      "anonymous": false,
      "inputs": [
        {
          "indexed": true,
          "internalType": "address",
          "name": "from",
          "type": "address"
        },
        {
          "indexed": false,
          "internalType": "string",
          "name": "",
          "type": "string"
        },
        {
          "indexed": false,
          "internalType": "uint256",
          "name": "timestamp",
          "type": "uint256"
        }
      ],
      "name": "newMessage",
      "type": "event"
    },
    {
      "inputs": [],
      "name": "getMessages",
      "outputs": [
        {
          "components": [
            {
              "internalType": "address",
              "name": "messenger",
              "type": "address"
            },
            {
              "internalType": "string",
              "name": "textMessage",
              "type": "string"
            },
            {
              "internalType": "uint256",
              "name": "timestamp",
              "type": "uint256"
            }
          ],
          "internalType": "struct MessagePortal.Messages[]",
          "name": "",
          "type": "tuple[]"
        }
      ],
      "stateMutability": "view",
      "type": "function"
    },
    {
      "inputs": [
        {
          "internalType": "string",
          "name": "_message",
          "type": "string"
        }
      ],
      "name": "sendMessage",
      "outputs": [],
      "stateMutability": "nonpayable",
      "type": "function"
    }
  ],
  "bytecode": "0x6080604052620000336040518060600160405280602481526020016200107c602491396200003960201b6200041b1760201c565b620001c3565b620000d9816040516024016200005091906200019f565b6040516020818303038152906040527f41304fac000000000000000000000000000000000000000000000000000000007bffffffffffffffffffffffffffffffffffffffffffffffffffffffff19166020820180517bffffffffffffffffffffffffffffffffffffffffffffffffffffffff8381831617835250505050620000dc60201b60201c565b50565b60008151905060006a636f6e736f6c652e6c6f679050602083016000808483855afa5050505050565b600081519050919050565b600082825260208201905092915050565b60005b838110156200014157808201518184015260208101905062000124565b60008484015250505050565b6000601f19601f8301169050919050565b60006200016b8262000105565b62000177818562000110565b93506200018981856020860162000121565b62000194816200014d565b840191505092915050565b60006020820190508181036000830152620001bb81846200015e565b905092915050565b610ea980620001d36000396000f3fe608060405234801561001057600080fd5b50600436106100365760003560e01c8063469c81101461003b5780635ff6cbf314610057575b600080fd5b610055600480360381019061005091906106d6565b610075565b005b61005f6102ca565b60405161006c919061090a565b60405180910390f35b6100b56040518060400160405280601981526020017f2573206861732073656e742061206d6573736167653a2025730000000000000081525033836104b4565b600060405180606001604052803373ffffffffffffffffffffffffffffffffffffffff16815260200183815260200142815250908060018154018082558091505060019003906000526020600020906003020160009091909190915060008201518160000160006101000a81548173ffffffffffffffffffffffffffffffffffffffff021916908373ffffffffffffffffffffffffffffffffffffffff160217905550602082015181600101908161016d9190610b38565b506040820151816002015550503373ffffffffffffffffffffffffffffffffffffffff167fcaf4ba9a3355d3b4552c98c7344da6269208f207fbd6406e4e1d655e92fd3d7682426040516101c2929190610c63565b60405180910390a2600066038d7ea4c68000905047811115610219576040517f08c379a000000000000000000000000000000000000000000000000000000000815260040161021090610d05565b60405180910390fd5b60003373ffffffffffffffffffffffffffffffffffffffff168260405161023f90610d56565b60006040518083038185875af1925050503d806000811461027c576040519150601f19603f3d011682016040523d82523d6000602084013e610281565b606091505b50509050806102c5576040517f08c379a00000000000000000000000000000000000000000000000000000000081526004016102bc90610ddd565b60405180910390fd5b505050565b60606000805480602002602001604051908101604052809291908181526020016000905b8282101561041257838290600052602060002090600302016040518060600160405290816000820160009054906101000a900473ffffffffffffffffffffffffffffffffffffffff1673ffffffffffffffffffffffffffffffffffffffff1673ffffffffffffffffffffffffffffffffffffffff1681526020016001820180546103779061095b565b80601f01602080910402602001604051908101604052809291908181526020018280546103a39061095b565b80156103f05780601f106103c5576101008083540402835291602001916103f0565b820191906000526020600020905b8154815290600101906020018083116103d357829003601f168201915b50505050508152602001600282015481525050815260200190600101906102ee565b50505050905090565b6104b18160405160240161042f9190610dfd565b6040516020818303038152906040527f41304fac000000000000000000000000000000000000000000000000000000007bffffffffffffffffffffffffffffffffffffffffffffffffffffffff19166020820180517bffffffffffffffffffffffffffffffffffffffffffffffffffffffff8381831617835250505050610553565b50565b61054e8383836040516024016104cc93929190610e2e565b6040516020818303038152906040527fe0e9ad4f000000000000000000000000000000000000000000000000000000007bffffffffffffffffffffffffffffffffffffffffffffffffffffffff19166020820180517bffffffffffffffffffffffffffffffffffffffffffffffffffffffff8381831617835250505050610553565b505050565b60008151905060006a636f6e736f6c652e6c6f679050602083016000808483855afa5050505050565b6000604051905090565b600080fd5b600080fd5b600080fd5b600080fd5b6000601f19601f8301169050919050565b7f4e487b7100000000000000000000000000000000000000000000000000000000600052604160045260246000fd5b6105e38261059a565b810181811067ffffffffffffffff82111715610602576106016105ab565b5b80604052505050565b600061061561057c565b905061062182826105da565b919050565b600067ffffffffffffffff821115610641576106406105ab565b5b61064a8261059a565b9050602081019050919050565b82818337600083830152505050565b600061067961067484610626565b61060b565b90508281526020810184848401111561069557610694610595565b5b6106a0848285610657565b509392505050565b600082601f8301126106bd576106bc610590565b5b81356106cd848260208601610666565b91505092915050565b6000602082840312156106ec576106eb610586565b5b600082013567ffffffffffffffff81111561070a5761070961058b565b5b610716848285016106a8565b91505092915050565b600081519050919050565b600082825260208201905092915050565b6000819050602082019050919050565b600073ffffffffffffffffffffffffffffffffffffffff82169050919050565b60006107768261074b565b9050919050565b6107868161076b565b82525050565b600081519050919050565b600082825260208201905092915050565b60005b838110156107c65780820151818401526020810190506107ab565b60008484015250505050565b60006107dd8261078c565b6107e78185610797565b93506107f78185602086016107a8565b6108008161059a565b840191505092915050565b6000819050919050565b61081e8161080b565b82525050565b600060608301600083015161083c600086018261077d565b506020830151848203602086015261085482826107d2565b91505060408301516108696040860182610815565b508091505092915050565b60006108808383610824565b905092915050565b6000602082019050919050565b60006108a08261071f565b6108aa818561072a565b9350836020820285016108bc8561073b565b8060005b858110156108f857848403895281516108d98582610874565b94506108e483610888565b925060208a019950506001810190506108c0565b50829750879550505050505092915050565b600060208201905081810360008301526109248184610895565b905092915050565b7f4e487b7100000000000000000000000000000000000000000000000000000000600052602260045260246000fd5b6000600282049050600182168061097357607f821691505b6020821081036109865761098561092c565b5b50919050565b60008190508160005260206000209050919050565b60006020601f8301049050919050565b600082821b905092915050565b6000600883026109ee7fffffffffffffffffffffffffffffffffffffffffffffffffffffffffffffffff826109b1565b6109f886836109b1565b95508019841693508086168417925050509392505050565b6000819050919050565b6000610a35610a30610a2b8461080b565b610a10565b61080b565b9050919050565b6000819050919050565b610a4f83610a1a565b610a63610a5b82610a3c565b8484546109be565b825550505050565b600090565b610a78610a6b565b610a83818484610a46565b505050565b5b81811015610aa757610a9c600082610a70565b600181019050610a89565b5050565b601f821115610aec57610abd8161098c565b610ac6846109a1565b81016020851015610ad5578190505b610ae9610ae1856109a1565b830182610a88565b50505b505050565b600082821c905092915050565b6000610b0f60001984600802610af1565b1980831691505092915050565b6000610b288383610afe565b9150826002028217905092915050565b610b418261078c565b67ffffffffffffffff811115610b5a57610b596105ab565b5b610b64825461095b565b610b6f828285610aab565b600060209050601f831160018114610ba25760008415610b90578287015190505b610b9a8582610b1c565b865550610c02565b601f198416610bb08661098c565b60005b82811015610bd857848901518255600182019150602085019450602081019050610bb3565b86831015610bf55784890151610bf1601f891682610afe565b8355505b6001600288020188555050505b505050505050565b600082825260208201905092915050565b6000610c268261078c565b610c308185610c0a565b9350610c408185602086016107a8565b610c498161059a565b840191505092915050565b610c5d8161080b565b82525050565b60006040820190508181036000830152610c7d8185610c1b565b9050610c8c6020830184610c54565b9392505050565b7f4e6f7420656e6f7567682066756e647320696e2074686520636f6e747261637460008201527f20746f206d616b652074686973207472616e73616374696f6e00000000000000602082015250565b6000610cef603983610c0a565b9150610cfa82610c93565b604082019050919050565b60006020820190508181036000830152610d1e81610ce2565b9050919050565b600081905092915050565b50565b6000610d40600083610d25565b9150610d4b82610d30565b600082019050919050565b6000610d6182610d33565b9150819050919050565b7f4661696c656420746f20776974686472617720616d6f756e742066726f6d206360008201527f6f6e747261637400000000000000000000000000000000000000000000000000602082015250565b6000610dc7602783610c0a565b9150610dd282610d6b565b604082019050919050565b60006020820190508181036000830152610df681610dba565b9050919050565b60006020820190508181036000830152610e178184610c1b565b905092915050565b610e288161076b565b82525050565b60006060820190508181036000830152610e488186610c1b565b9050610e576020830185610e1f565b8181036040830152610e698184610c1b565b905094935050505056fea2646970667358221220c9ee74984426fada2585cbac9b0ac02b36acc1db97f1629e2bd7c03350fc283864736f6c63430008110033536d61727420636f6e7472616374206973206265696e6720636f6e73747275637465642e",
  "linkReferences": {},
  "deployedLinkReferences": {}
}