{
  "_format": "hh-sol-artifact-1",
  "contractName": "MessagePortal",
  "sourceName": "contracts/MessagePortal.sol",
  "abi": [
    {
      "inputs": [],
      "stateMutability": "nonpayable",
      "type": "constructor"
    },
    {
      "anonymous": false,
      "inputs": [
        {
          "indexed": true,
          "internalType": "address",
          "name": "from",
          "type": "address"
        },
        {
          "indexed": false,
          "internalType": "string",
          "name": "",
          "type": "string"
        },
        {
          "indexed": false,
          "internalType": "uint256",
          "name": "timestamp",
          "type": "uint256"
        }
      ],
      "name": "newMessage",
      "type": "event"
    },
    {
      "inputs": [],
      "name": "getMessages",
      "outputs": [
        {
          "components": [
            {
              "internalType": "address",
              "name": "messenger",
              "type": "address"
            },
            {
              "internalType": "string",
              "name": "textMessage",
              "type": "string"
            },
            {
              "internalType": "uint256",
              "name": "timestamp",
              "type": "uint256"
            }
          ],
          "internalType": "struct MessagePortal.Messages[]",
          "name": "",
          "type": "tuple[]"
        }
      ],
      "stateMutability": "view",
      "type": "function"
    },
    {
      "inputs": [
        {
          "internalType": "string",
          "name": "_message",
          "type": "string"
        }
      ],
      "name": "sendMessage",
      "outputs": [],
      "stateMutability": "nonpayable",
      "type": "function"
    }
  ],
  "bytecode": "0x60806040523480156200001157600080fd5b506200004160405180606001604052806024815260200162000e23602491396200004760201b6200031e1760201c565b620001d1565b620000e7816040516024016200005e9190620001ad565b6040516020818303038152906040527f41304fac000000000000000000000000000000000000000000000000000000007bffffffffffffffffffffffffffffffffffffffffffffffffffffffff19166020820180517bffffffffffffffffffffffffffffffffffffffffffffffffffffffff8381831617835250505050620000ea60201b60201c565b50565b60008151905060006a636f6e736f6c652e6c6f679050602083016000808483855afa5050505050565b600081519050919050565b600082825260208201905092915050565b60005b838110156200014f57808201518184015260208101905062000132565b60008484015250505050565b6000601f19601f8301169050919050565b6000620001798262000113565b6200018581856200011e565b9350620001978185602086016200012f565b620001a2816200015b565b840191505092915050565b60006020820190508181036000830152620001c981846200016c565b905092915050565b610c4280620001e16000396000f3fe608060405234801561001057600080fd5b50600436106100365760003560e01c8063469c81101461003b5780635ff6cbf314610057575b600080fd5b610055600480360381019061005091906105d9565b610075565b005b61005f6101cd565b60405161006c919061080d565b60405180910390f35b6100b56040518060400160405280601981526020017f2573206861732073656e742061206d6573736167653a2025730000000000000081525033836103b7565b600060405180606001604052803373ffffffffffffffffffffffffffffffffffffffff16815260200183815260200142815250908060018154018082558091505060019003906000526020600020906003020160009091909190915060008201518160000160006101000a81548173ffffffffffffffffffffffffffffffffffffffff021916908373ffffffffffffffffffffffffffffffffffffffff160217905550602082015181600101908161016d9190610a3b565b506040820151816002015550503373ffffffffffffffffffffffffffffffffffffffff167fcaf4ba9a3355d3b4552c98c7344da6269208f207fbd6406e4e1d655e92fd3d7682426040516101c2929190610b66565b60405180910390a250565b60606000805480602002602001604051908101604052809291908181526020016000905b8282101561031557838290600052602060002090600302016040518060600160405290816000820160009054906101000a900473ffffffffffffffffffffffffffffffffffffffff1673ffffffffffffffffffffffffffffffffffffffff1673ffffffffffffffffffffffffffffffffffffffff16815260200160018201805461027a9061085e565b80601f01602080910402602001604051908101604052809291908181526020018280546102a69061085e565b80156102f35780601f106102c8576101008083540402835291602001916102f3565b820191906000526020600020905b8154815290600101906020018083116102d657829003601f168201915b50505050508152602001600282015481525050815260200190600101906101f1565b50505050905090565b6103b4816040516024016103329190610b96565b6040516020818303038152906040527f41304fac000000000000000000000000000000000000000000000000000000007bffffffffffffffffffffffffffffffffffffffffffffffffffffffff19166020820180517bffffffffffffffffffffffffffffffffffffffffffffffffffffffff8381831617835250505050610456565b50565b6104518383836040516024016103cf93929190610bc7565b6040516020818303038152906040527fe0e9ad4f000000000000000000000000000000000000000000000000000000007bffffffffffffffffffffffffffffffffffffffffffffffffffffffff19166020820180517bffffffffffffffffffffffffffffffffffffffffffffffffffffffff8381831617835250505050610456565b505050565b60008151905060006a636f6e736f6c652e6c6f679050602083016000808483855afa5050505050565b6000604051905090565b600080fd5b600080fd5b600080fd5b600080fd5b6000601f19601f8301169050919050565b7f4e487b7100000000000000000000000000000000000000000000000000000000600052604160045260246000fd5b6104e68261049d565b810181811067ffffffffffffffff82111715610505576105046104ae565b5b80604052505050565b600061051861047f565b905061052482826104dd565b919050565b600067ffffffffffffffff821115610544576105436104ae565b5b61054d8261049d565b9050602081019050919050565b82818337600083830152505050565b600061057c61057784610529565b61050e565b90508281526020810184848401111561059857610597610498565b5b6105a384828561055a565b509392505050565b600082601f8301126105c0576105bf610493565b5b81356105d0848260208601610569565b91505092915050565b6000602082840312156105ef576105ee610489565b5b600082013567ffffffffffffffff81111561060d5761060c61048e565b5b610619848285016105ab565b91505092915050565b600081519050919050565b600082825260208201905092915050565b6000819050602082019050919050565b600073ffffffffffffffffffffffffffffffffffffffff82169050919050565b60006106798261064e565b9050919050565b6106898161066e565b82525050565b600081519050919050565b600082825260208201905092915050565b60005b838110156106c95780820151818401526020810190506106ae565b60008484015250505050565b60006106e08261068f565b6106ea818561069a565b93506106fa8185602086016106ab565b6107038161049d565b840191505092915050565b6000819050919050565b6107218161070e565b82525050565b600060608301600083015161073f6000860182610680565b506020830151848203602086015261075782826106d5565b915050604083015161076c6040860182610718565b508091505092915050565b60006107838383610727565b905092915050565b6000602082019050919050565b60006107a382610622565b6107ad818561062d565b9350836020820285016107bf8561063e565b8060005b858110156107fb57848403895281516107dc8582610777565b94506107e78361078b565b925060208a019950506001810190506107c3565b50829750879550505050505092915050565b600060208201905081810360008301526108278184610798565b905092915050565b7f4e487b7100000000000000000000000000000000000000000000000000000000600052602260045260246000fd5b6000600282049050600182168061087657607f821691505b6020821081036108895761088861082f565b5b50919050565b60008190508160005260206000209050919050565b60006020601f8301049050919050565b600082821b905092915050565b6000600883026108f17fffffffffffffffffffffffffffffffffffffffffffffffffffffffffffffffff826108b4565b6108fb86836108b4565b95508019841693508086168417925050509392505050565b6000819050919050565b600061093861093361092e8461070e565b610913565b61070e565b9050919050565b6000819050919050565b6109528361091d565b61096661095e8261093f565b8484546108c1565b825550505050565b600090565b61097b61096e565b610986818484610949565b505050565b5b818110156109aa5761099f600082610973565b60018101905061098c565b5050565b601f8211156109ef576109c08161088f565b6109c9846108a4565b810160208510156109d8578190505b6109ec6109e4856108a4565b83018261098b565b50505b505050565b600082821c905092915050565b6000610a12600019846008026109f4565b1980831691505092915050565b6000610a2b8383610a01565b9150826002028217905092915050565b610a448261068f565b67ffffffffffffffff811115610a5d57610a5c6104ae565b5b610a67825461085e565b610a728282856109ae565b600060209050601f831160018114610aa55760008415610a93578287015190505b610a9d8582610a1f565b865550610b05565b601f198416610ab38661088f565b60005b82811015610adb57848901518255600182019150602085019450602081019050610ab6565b86831015610af85784890151610af4601f891682610a01565b8355505b6001600288020188555050505b505050505050565b600082825260208201905092915050565b6000610b298261068f565b610b338185610b0d565b9350610b438185602086016106ab565b610b4c8161049d565b840191505092915050565b610b608161070e565b82525050565b60006040820190508181036000830152610b808185610b1e565b9050610b8f6020830184610b57565b9392505050565b60006020820190508181036000830152610bb08184610b1e565b905092915050565b610bc18161066e565b82525050565b60006060820190508181036000830152610be18186610b1e565b9050610bf06020830185610bb8565b8181036040830152610c028184610b1e565b905094935050505056fea26469706673582212200164421d4de8c88fe30f266812502f9ac5ef8940b4318bed553cef19104a5c9464736f6c63430008110033536d61727420636f6e7472616374206973206265696e6720636f6e73747275637465642e",
  "linkReferences": {},
  "deployedLinkReferences": {}
}